{
  "contractName": "IdentityManager",
  "abi": [
    {
      "inputs": [
        {
          "internalType": "address",
          "name": "_libraryAddress",
          "type": "address"
        }
      ],
      "stateMutability": "nonpayable",
      "type": "constructor"
    },
    {
      "anonymous": false,
      "inputs": [
        {
          "indexed": true,
          "internalType": "address",
          "name": "identity",
          "type": "address"
        },
        {
          "indexed": true,
          "internalType": "address",
          "name": "owner",
          "type": "address"
        },
        {
          "indexed": true,
          "internalType": "uint256",
          "name": "at",
          "type": "uint256"
        }
      ],
      "name": "IdentityCreated",
      "type": "event"
    },
    {
      "anonymous": false,
      "inputs": [
        {
          "indexed": true,
          "internalType": "address",
          "name": "identity",
          "type": "address"
        },
        {
          "indexed": true,
          "internalType": "address",
          "name": "owner",
          "type": "address"
        },
        {
          "indexed": false,
          "internalType": "address",
          "name": "oferedto",
          "type": "address"
        },
        {
          "indexed": true,
          "internalType": "uint256",
          "name": "at",
          "type": "uint256"
        }
      ],
      "name": "IdentityOfferCanceled",
      "type": "event"
    },
    {
      "anonymous": false,
      "inputs": [
        {
          "indexed": true,
          "internalType": "address",
          "name": "identity",
          "type": "address"
        },
        {
          "indexed": false,
          "internalType": "address",
          "name": "owner",
          "type": "address"
        },
        {
          "indexed": true,
          "internalType": "address",
          "name": "offeredTo",
          "type": "address"
        },
        {
          "indexed": true,
          "internalType": "uint256",
          "name": "at",
          "type": "uint256"
        }
      ],
      "name": "IdentityOfferRejected",
      "type": "event"
    },
    {
      "anonymous": false,
      "inputs": [
        {
          "indexed": true,
          "internalType": "address",
          "name": "identity",
          "type": "address"
        },
        {
          "indexed": true,
          "internalType": "address",
          "name": "owner",
          "type": "address"
        },
        {
          "indexed": false,
          "internalType": "address",
          "name": "offeredTo",
          "type": "address"
        },
        {
          "indexed": true,
          "internalType": "uint256",
          "name": "at",
          "type": "uint256"
        }
      ],
      "name": "IdentityOffered",
      "type": "event"
    },
    {
      "anonymous": false,
      "inputs": [
        {
          "indexed": true,
          "internalType": "address",
          "name": "identity",
          "type": "address"
        },
        {
          "indexed": true,
          "internalType": "address",
          "name": "owner",
          "type": "address"
        },
        {
          "indexed": true,
          "internalType": "uint256",
          "name": "at",
          "type": "uint256"
        }
      ],
      "name": "IdentityTransferred",
      "type": "event"
    },
    {
      "inputs": [
        {
          "internalType": "address",
          "name": "identity",
          "type": "address"
        }
      ],
      "name": "verified",
      "outputs": [
        {
          "internalType": "bool",
          "name": "",
          "type": "bool"
        }
      ],
      "stateMutability": "view",
      "type": "function"
    },
    {
      "inputs": [
        {
          "internalType": "address",
          "name": "identity",
          "type": "address"
        }
      ],
      "name": "compliant",
      "outputs": [
        {
          "internalType": "bool",
          "name": "",
          "type": "bool"
        }
      ],
      "stateMutability": "view",
      "type": "function"
    },
    {
      "inputs": [
        {
          "internalType": "address",
          "name": "identity",
          "type": "address"
        }
      ],
      "name": "identityOwner",
      "outputs": [
        {
          "internalType": "address",
          "name": "",
          "type": "address"
        }
      ],
      "stateMutability": "view",
      "type": "function"
    },
    {
      "inputs": [
        {
          "internalType": "address",
          "name": "_owner",
          "type": "address"
        }
      ],
      "name": "createIdentity",
      "outputs": [],
      "stateMutability": "nonpayable",
      "type": "function"
    },
    {
      "inputs": [
        {
          "internalType": "address",
          "name": "_owner",
          "type": "address"
        }
      ],
      "name": "identityCreated",
      "outputs": [],
      "stateMutability": "nonpayable",
      "type": "function"
    },
    {
      "inputs": [
        {
          "internalType": "address",
          "name": "_offeredTo",
          "type": "address"
        }
      ],
      "name": "identityOffered",
      "outputs": [],
      "stateMutability": "nonpayable",
      "type": "function"
    },
    {
      "inputs": [
        {
          "internalType": "address",
          "name": "_owner",
          "type": "address"
        }
      ],
      "name": "identityAccepted",
      "outputs": [],
      "stateMutability": "nonpayable",
      "type": "function"
    },
    {
      "inputs": [
        {
          "internalType": "address",
          "name": "_offeredTo",
          "type": "address"
        }
      ],
      "name": "identityRejected",
      "outputs": [],
      "stateMutability": "nonpayable",
      "type": "function"
    },
    {
      "inputs": [
        {
          "internalType": "address",
          "name": "_offeredTo",
          "type": "address"
        }
      ],
      "name": "identityOfferCanceled",
      "outputs": [],
      "stateMutability": "nonpayable",
      "type": "function"
    }
  ],
  "bytecode": "0x608060405234801561001057600080fd5b50604051610cb4380380610cb483398101604081905261002f91610054565b600080546001600160a01b0319166001600160a01b0392909216919091179055610082565b600060208284031215610065578081fd5b81516001600160a01b038116811461007b578182fd5b9392505050565b610c23806100916000396000f3fe608060405234801561001057600080fd5b50600436106100935760003560e01c80638733d4e8116100665780638733d4e814610119578063d833d04314610144578063ebdcd2eb14610176578063f0ba4f6014610189578063fab3157e1461019c57600080fd5b8063062960d4146100985780630db065f4146100ad5780635b2ab06c146100f3578063845de7bc14610106575b600080fd5b6100ab6100a6366004610ab2565b6101af565b005b6100de6100bb366004610ab2565b6001600160a01b0316600090815260016020526040902054610100900460ff1690565b60405190151581526020015b60405180910390f35b6100ab610101366004610ab2565b61034e565b6100ab610114366004610ab2565b61043a565b61012c610127366004610ab2565b610557565b6040516001600160a01b0390911681526020016100ea565b6100de610152366004610ab2565b6001600160a01b031660009081526001602052604090205462010000900460ff1690565b6100ab610184366004610ab2565b61057d565b6100ab610197366004610ab2565b61061f565b6100ab6101aa366004610ab2565b6106be565b6101c0336322bd186d60e01b61075a565b6102115760405162461bcd60e51b815260206004820152601f60248201527f4f6e6c79204f6666657261626c65204964656e7469747920616c6c6f7765640060448201526064015b60405180910390fd5b3360009081526001602052604090205460ff161561024a57336000908152600160205260409020805461ff001916610100179055610269565b336000908152600160205260409020805462ff00001916620100001790555b600061027433610557565b6001600160a01b0316146102e85760405162461bcd60e51b815260206004820152603560248201527f4964656e746974794d616e616765723a204964656e7469747920616c726561646044820152741e481a185cc81899595b881c9959da5cdd195c9959605a1b6064820152608401610208565b336000818152600160205260408082208054640100000000600160c01b0319166401000000006001600160a01b038716908102919091179091559051429391927fb9fb8e551e2c1eca32cadcff5fba92a08c15e5fdb3d0b5b77b3c0c299cb6d4e091a450565b60008054610364906001600160a01b031661077f565b6001600160a01b038181166000908152600160208181526040808420805460ff191690931790925581518083018352600d81526c696e697428616464726573732960981b9101525191851660248301529192507f19ab453cff53dab05fc3f2d48c3c48db21397e0117c6a600ff7766615fc520d690604401604051602081830303815290604052906001600160e01b0319166020820180516001600160e01b03838183161783525050505090506104348282604051806060016040528060318152602001610bbd6031913961081c565b50505050565b33600090815260016020526040902054610100900460ff168061047257503360009081526001602052604090205462010000900460ff165b6104e45760405162461bcd60e51b815260206004820152603860248201527f4964656e746974794d616e616765723a204e6f7420636f6d706c69616e74206960448201527f64656e746974792063616e2774206265206f66666572656400000000000000006064820152608401610208565b336000818152600160205260409020805463ff00000019166301000000179055429061050f90610557565b6040516001600160a01b038481168252919091169033907f06f60810783b48f561226446a054a0a69c6ed28d2dcc1fa121d1c8f75932d44b906020015b60405180910390a450565b6001600160a01b0390811660009081526001602052604090205464010000000090041690565b336000908152600160205260409020546301000000900460ff166105b35760405162461bcd60e51b815260040161020890610b48565b3360008181526001602052604080822080546301000000600160c01b0319166401000000006001600160a01b03871690810263ff0000001916919091179091559051429391927f935587b2ac44cbc8f19b54532d7d55c0bfb1f1d498f42f208eaf88fba9c65a6391a450565b336000908152600160205260409020546301000000900460ff166106555760405162461bcd60e51b815260040161020890610b48565b336000818152600160205260409020805463ff0000001916905542906001600160a01b038316907ff8b19edda65b5d62bf5cffc44b06971c852691ffbdc99a3321d80ec842f1dc6d6106a682610557565b6040516001600160a01b03909116815260200161054c565b336000908152600160205260409020546301000000900460ff166106f45760405162461bcd60e51b815260040161020890610b48565b336000818152600160205260409020805463ff00000019169055429061071990610557565b6040516001600160a01b038481168252919091169033907f02d7c2d528e37f89d262715cd5ed5727bd92404af478372c95f9ea366558794a9060200161054c565b600061076583610835565b801561077657506107768383610868565b90505b92915050565b6000604051733d602d80600a3d3981f3363d3d373d3d3d363d7360601b81528260601b60148201526e5af43d82803e903d91602b57fd5bf360881b60288201526037816000f09150506001600160a01b0381166108175760405162461bcd60e51b8152602060048201526016602482015275115490cc4c4d8dce8818dc99585d194819985a5b195960521b6044820152606401610208565b919050565b606061082b8484600085610951565b90505b9392505050565b6000610848826301ffc9a760e01b610868565b80156107795750610861826001600160e01b0319610868565b1592915050565b604080516001600160e01b0319831660248083019190915282518083039091018152604490910182526020810180516001600160e01b03166301ffc9a760e01b179052905160009190829081906001600160a01b03871690617530906108cf908690610af9565b6000604051808303818686fa925050503d806000811461090b576040519150601f19603f3d011682016040523d82523d6000602084013e610910565b606091505b509150915060208151101561092b5760009350505050610779565b8180156109475750808060200190518101906109479190610ad9565b9695505050505050565b6060824710156109b25760405162461bcd60e51b815260206004820152602660248201527f416464726573733a20696e73756666696369656e742062616c616e636520666f6044820152651c8818d85b1b60d21b6064820152608401610208565b843b610a005760405162461bcd60e51b815260206004820152601d60248201527f416464726573733a2063616c6c20746f206e6f6e2d636f6e74726163740000006044820152606401610208565b600080866001600160a01b03168587604051610a1c9190610af9565b60006040518083038185875af1925050503d8060008114610a59576040519150601f19603f3d011682016040523d82523d6000602084013e610a5e565b606091505b5091509150610a6e828286610a79565b979650505050505050565b60608315610a8857508161082e565b825115610a985782518084602001fd5b8160405162461bcd60e51b81526004016102089190610b15565b600060208284031215610ac3578081fd5b81356001600160a01b038116811461082e578182fd5b600060208284031215610aea578081fd5b8151801515811461082e578182fd5b60008251610b0b818460208701610b90565b9190910192915050565b6020815260008251806020840152610b34816040850160208701610b90565b601f01601f19169190910160400192915050565b60208082526028908201527f4964656e746974794d616e616765723a204964656e74697479206973206e6f74604082015267081bd999995c995960c21b606082015260800190565b60005b83811015610bab578181015183820152602001610b93565b83811115610434575050600091015256fe4964656e746974794d616e616765723a2043616e277420696e697469616c697a6520636c6f6e6564206964656e74697479a264697066735822122078cd40b0b767c977e02ca3a62545aa4b718f6e757e10b86a64013776e74ffed164736f6c63430008040033",
  "immutableReferences": {},
  "source": "// SPDX-License-Identifier: MIT\r\npragma solidity >=0.8.4 <=0.9.0;\r\n\r\nimport \"@openzeppelin/contracts/proxy/Clones.sol\";\r\nimport \"@openzeppelin/contracts/utils/Address.sol\";\r\nimport \"@openzeppelin/contracts/utils/introspection/ERC165Checker.sol\";\r\nimport \"./OfferableIdentity.sol\";\r\nimport \"./IOfferable.sol\";\r\n\r\ncontract IdentityManager {\r\n    address libraryAddress;\r\n\r\n    bytes4 private constant INIT_SELECTOR =\r\n        bytes4(keccak256(bytes(\"init(address)\")));\r\n\r\n    struct Identity {\r\n        bool created;\r\n        bool verified;\r\n        bool compliant;\r\n        bool offered;\r\n        address owner;\r\n    }\r\n\r\n    mapping(address => Identity) identities;\r\n\r\n    event IdentityCreated(\r\n        address indexed identity,\r\n        address indexed owner,\r\n        uint256 indexed at\r\n    );\r\n    event IdentityOffered(\r\n        address indexed identity,\r\n        address indexed owner,\r\n        address offeredTo,\r\n        uint256 indexed at\r\n    );\r\n    event IdentityTransferred(\r\n        address indexed identity,\r\n        address indexed owner,\r\n        uint256 indexed at\r\n    );\r\n    event IdentityOfferRejected(\r\n        address indexed identity,\r\n        address owner,\r\n        address indexed offeredTo,\r\n        uint256 indexed at\r\n    );\r\n    event IdentityOfferCanceled(\r\n        address indexed identity,\r\n        address indexed owner,\r\n        address oferedto,\r\n        uint256 indexed at\r\n    );\r\n\r\n    constructor(address _libraryAddress) {\r\n        libraryAddress = _libraryAddress;\r\n    }\r\n\r\n    modifier isOfferable() {\r\n        require(\r\n            ERC165Checker.supportsInterface(\r\n                msg.sender,\r\n                type(IOfferable).interfaceId\r\n            ),\r\n            \"Only Offerable Identity allowed\"\r\n        );\r\n        _;\r\n    }\r\n\r\n    modifier isOffered() {\r\n        require(\r\n            identities[msg.sender].offered,\r\n            \"IdentityManager: Identity is not offered\"\r\n        );\r\n        _;\r\n    }\r\n\r\n    function verified(address identity) public view returns (bool) {\r\n        return identities[identity].verified;\r\n    }\r\n\r\n    function compliant(address identity) public view returns (bool) {\r\n        return identities[identity].compliant;\r\n    }\r\n\r\n    function created(address identity) internal view returns (bool) {\r\n        return identities[identity].created;\r\n    }\r\n\r\n    function offered(address identity) internal view returns (bool) {\r\n        return identities[identity].offered;\r\n    }\r\n\r\n    function identityOwner(address identity) public view returns (address) {\r\n        return identities[identity].owner;\r\n    }\r\n\r\n    function createIdentity(address _owner) external {\r\n        address identity = Clones.clone(libraryAddress);\r\n        identities[identity].created = true;\r\n\r\n        bytes memory initData = abi.encodeWithSelector(INIT_SELECTOR, _owner);\r\n        Address.functionCall(\r\n            identity,\r\n            initData,\r\n            \"IdentityManager: Can't initialize cloned identity\"\r\n        );\r\n    }\r\n\r\n    function identityCreated(address _owner) external isOfferable {\r\n        if (created(msg.sender)) {\r\n            identities[msg.sender].verified = true;\r\n        } else {\r\n            identities[msg.sender].compliant = true;\r\n        }\r\n        require(\r\n            identityOwner(msg.sender) == address(0),\r\n            \"IdentityManager: Identity already has been registered\"\r\n        );\r\n        identities[msg.sender].owner = _owner;\r\n        emit IdentityCreated(msg.sender, _owner, block.timestamp);\r\n    }\r\n\r\n    function identityOffered(address _offeredTo) external {\r\n        require(\r\n            verified(msg.sender) || compliant(msg.sender),\r\n            \"IdentityManager: Not compliant identity can't be offered\"\r\n        );\r\n        identities[msg.sender].offered = true;\r\n        emit IdentityOffered(\r\n            msg.sender,\r\n            identityOwner(msg.sender),\r\n            _offeredTo,\r\n            block.timestamp\r\n        );\r\n    }\r\n\r\n    function identityAccepted(address _owner) external isOffered {\r\n        identities[msg.sender].owner = _owner;\r\n        identities[msg.sender].offered = false;\r\n        emit IdentityTransferred(msg.sender, _owner, block.timestamp);\r\n    }\r\n\r\n    function identityRejected(address _offeredTo) external isOffered {\r\n        identities[msg.sender].offered = false;\r\n        emit IdentityOfferRejected(\r\n            msg.sender,\r\n            identityOwner(msg.sender),\r\n            _offeredTo,\r\n            block.timestamp\r\n        );\r\n    }\r\n\r\n    function identityOfferCanceled(address _offeredTo) external isOffered {\r\n        identities[msg.sender].offered = false;\r\n        emit IdentityOfferCanceled(\r\n            msg.sender,\r\n            identityOwner(msg.sender),\r\n            _offeredTo,\r\n            block.timestamp\r\n        );\r\n    }\r\n}\r\n",
  "sourcePath": "D:\\Programmazione\\Tesi\\contract\\contracts\\IdentityManager.sol",
  "compiler": {
    "name": "solc",
    "version": "0.8.4+commit.c7e474f2.Emscripten.clang"
  },
  "schemaVersion": "3.3.3",
  "updatedAt": "2021-09-05T15:33:46.560Z",
  "devdoc": {
    "kind": "dev",
    "methods": {},
    "version": 1
  },
  "userdoc": {
    "kind": "user",
    "methods": {},
    "version": 1
  }
}