{
  "contractName": "OfferableIdentity",
  "abi": [
    {
      "anonymous": false,
      "inputs": [
        {
          "indexed": true,
          "internalType": "bytes",
          "name": "data",
          "type": "bytes"
        },
        {
          "indexed": true,
          "internalType": "uint256",
          "name": "value",
          "type": "uint256"
        }
      ],
      "name": "TransactionSent",
      "type": "event"
    },
    {
      "inputs": [],
      "name": "offeredTo",
      "outputs": [
        {
          "internalType": "address",
          "name": "",
          "type": "address"
        }
      ],
      "stateMutability": "view",
      "type": "function"
    },
    {
      "inputs": [],
      "name": "owner",
      "outputs": [
        {
          "internalType": "address",
          "name": "",
          "type": "address"
        }
      ],
      "stateMutability": "view",
      "type": "function"
    },
    {
      "inputs": [
        {
          "internalType": "address",
          "name": "_owner",
          "type": "address"
        }
      ],
      "name": "init",
      "outputs": [],
      "stateMutability": "nonpayable",
      "type": "function"
    },
    {
      "inputs": [
        {
          "internalType": "address",
          "name": "_offeredTo",
          "type": "address"
        }
      ],
      "name": "offer",
      "outputs": [],
      "stateMutability": "nonpayable",
      "type": "function"
    },
    {
      "inputs": [],
      "name": "acceptOffer",
      "outputs": [],
      "stateMutability": "nonpayable",
      "type": "function"
    },
    {
      "inputs": [],
      "name": "rejectOffer",
      "outputs": [],
      "stateMutability": "nonpayable",
      "type": "function"
    },
    {
      "inputs": [],
      "name": "cancelOffer",
      "outputs": [],
      "stateMutability": "nonpayable",
      "type": "function"
    },
    {
      "inputs": [
        {
          "internalType": "address",
          "name": "to",
          "type": "address"
        },
        {
          "internalType": "bytes",
          "name": "data",
          "type": "bytes"
        },
        {
          "internalType": "uint256",
          "name": "value",
          "type": "uint256"
        }
      ],
      "name": "sendTransaction",
      "outputs": [
        {
          "internalType": "bool",
          "name": "success",
          "type": "bool"
        }
      ],
      "stateMutability": "nonpayable",
      "type": "function"
    },
    {
      "inputs": [
        {
          "internalType": "bytes4",
          "name": "interfaceId",
          "type": "bytes4"
        }
      ],
      "name": "supportsInterface",
      "outputs": [
        {
          "internalType": "bool",
          "name": "",
          "type": "bool"
        }
      ],
      "stateMutability": "view",
      "type": "function"
    }
  ],
  "bytecode": "0x608060405234801561001057600080fd5b506108d6806100206000396000f3fe608060405234801561001057600080fd5b50600436106100935760003560e01c80638da5cb5b116100665780638da5cb5b146100f0578063918af2cf1461011b578063ce2d4aca1461012e578063eb62df6114610141578063efd998ad1461014957600080fd5b806301ffc9a71461009857806319ab453c146100c057806362d05c78146100d55780638afb4913146100dd575b600080fd5b6100ab6100a6366004610729565b610151565b60405190151581526020015b60405180910390f35b6100d36100ce366004610643565b6101a3565b005b6100d36102a7565b6100ab6100eb366004610664565b61034a565b600054610103906001600160a01b031681565b6040516001600160a01b0390911681526020016100b7565b600254610103906001600160a01b031681565b6100d361013c366004610643565b610490565b6100d3610503565b6100d36105a1565b60006001600160e01b031982166322bd186d60e01b148061018257506001600160e01b03198216638da5cb5b60e01b145b8061019d57506301ffc9a760e01b6001600160e01b03198316145b92915050565b6001546001600160a01b0316156102275760405162461bcd60e51b815260206004820152603760248201527f4f6666657261626c654964656e746974793a204964656e746974792063616e2060448201527f626520696e697469616c697a65206f6e6c79206f6e636500000000000000000060648201526084015b60405180910390fd5b600080546001600160a01b03199081166001600160a01b038416908117909255600180543392168217905560405163018a583560e21b815260048101929092529063062960d4906024015b600060405180830381600087803b15801561028c57600080fd5b505af11580156102a0573d6000803e3d6000fd5b5050505050565b6000546001600160a01b031633146102d15760405162461bcd60e51b815260040161021e906107db565b600154600254604051637d598abf60e11b81526001600160a01b03918216600482015291169063fab3157e906024015b600060405180830381600087803b15801561031b57600080fd5b505af115801561032f573d6000803e3d6000fd5b50505050610348600280546001600160a01b0319169055565b565b600080546001600160a01b031633146103755760405162461bcd60e51b815260040161021e906107db565b836001600160a01b03166113885a61038d9190610867565b838560405161039c9190610751565b600060405180830381858888f193505050503d80600081146103da576040519150601f19603f3d011682016040523d82523d6000602084013e6103df565b606091505b5050809150508061044a5760405162461bcd60e51b815260206004820152602f60248201527f4f6666657261626c654964656e746974793a204572726f722063616c6c696e6760448201526e081bdd1a195c8818dbdb9d1c9858dd608a1b606482015260840161021e565b81836040516104599190610751565b604051908190038120907f101abacb8de0d05456bbaf85756276fd0c5225e9ede84f539855df28aba51a7e90600090a39392505050565b6000546001600160a01b031633146104ba5760405162461bcd60e51b815260040161021e906107db565b600280546001600160a01b0319166001600160a01b0383811691821790925560015460405163211779ef60e21b815260048101929092529091169063845de7bc90602401610272565b6002546001600160a01b031661052b5760405162461bcd60e51b815260040161021e90610820565b6002546001600160a01b031633146105555760405162461bcd60e51b815260040161021e9061078a565b600254600080546001600160a01b0319166001600160a01b0392831690811790915560015460405163ebdcd2eb60e01b815260048101929092529091169063ebdcd2eb90602401610301565b6002546001600160a01b03166105c95760405162461bcd60e51b815260040161021e90610820565b6002546001600160a01b031633146105f35760405162461bcd60e51b815260040161021e9061078a565b600154600254604051630785d27b60e51b81526001600160a01b03918216600482015291169063f0ba4f6090602401610301565b80356001600160a01b038116811461063e57600080fd5b919050565b600060208284031215610654578081fd5b61065d82610627565b9392505050565b600080600060608486031215610678578182fd5b61068184610627565b9250602084013567ffffffffffffffff8082111561069d578384fd5b818601915086601f8301126106b0578384fd5b8135818111156106c2576106c261088a565b604051601f8201601f19908116603f011681019083821181831017156106ea576106ea61088a565b81604052828152896020848701011115610702578687fd5b82602086016020830137918201602001959095529497949650505050604092909201359150565b60006020828403121561073a578081fd5b81356001600160e01b03198116811461065d578182fd5b60008251815b818110156107715760208186018101518583015201610757565b8181111561077f5782828501525b509190910192915050565b60208082526031908201527f4f6666657261626c654964656e746974793a2050726f7879206f666665726564604082015270081d1bc81bdd1a195c881858d8dbdd5b9d607a1b606082015260800190565b60208082526025908201527f4f6666657261626c654964656e746974793a204f6e6c79206f776e657220616c6040820152641b1bddd95960da1b606082015260800190565b60208082526027908201527f4f6666657261626c654964656e746974793a2050726f7879206973206e6f74206040820152661bd999995c995960ca1b606082015260800190565b60008282101561088557634e487b7160e01b81526011600452602481fd5b500390565b634e487b7160e01b600052604160045260246000fdfea26469706673582212208e93b46e0cc12d8641fa1779d85c65952cf798db8159c37e33202d7385d2f58264736f6c63430008040033",
  "immutableReferences": {},
  "source": "// SPDX-License-Identifier: MIT\r\npragma solidity >=0.8.4 <=0.9.0;\r\n\r\nimport \"@openzeppelin/contracts/utils/introspection/ERC165.sol\";\r\nimport \"./IdentityManager.sol\";\r\nimport \"./IOfferable.sol\";\r\nimport \"./IOwned.sol\";\r\n\r\n\r\ncontract OfferableIdentity is IOfferable, IOwned, ERC165 {\r\n  address public override owner;\r\n  address manager;\r\n\r\n  address public offeredTo;\r\n\r\n  event TransactionSent(bytes indexed data, uint256 indexed value);\r\n\r\n  function init(address _owner) external {\r\n    require(\r\n      manager == address(0),\r\n      \"OfferableIdentity: Identity can be initialize only once\"\r\n    );\r\n    owner = _owner;\r\n    manager = msg.sender;\r\n    IdentityManager(manager).identityCreated(owner);\r\n  }\r\n\r\n  modifier isOwner() {\r\n    require(msg.sender == owner, \"OfferableIdentity: Only owner allowed\");\r\n    _;\r\n  }\r\n  \r\n  modifier isManager() {\r\n    require(msg.sender == manager, \"OfferableIdentity: Only manager allowed\");\r\n    _;\r\n  }\r\n\r\n  modifier isOfferedTo() {\r\n    require(offeredTo != address(0), \"OfferableIdentity: Proxy is not offered\");\r\n    require(\r\n      msg.sender == offeredTo,\r\n      \"OfferableIdentity: Proxy offered to other account\"\r\n    );\r\n    _;\r\n  }\r\n\r\n  function offer(address _offeredTo) external override isOwner {\r\n    offeredTo = _offeredTo;\r\n    IdentityManager(manager).identityOffered(offeredTo);\r\n  }\r\n\r\n  function acceptOffer() external override isOfferedTo {\r\n    owner = offeredTo;\r\n    IdentityManager(manager).identityAccepted(offeredTo);\r\n    closeOffer();\r\n  }\r\n\r\n  function rejectOffer() external override isOfferedTo {\r\n    IdentityManager(manager).identityRejected(offeredTo);\r\n    closeOffer();\r\n  }\r\n\r\n  function cancelOffer() external override isOwner {\r\n    IdentityManager(manager).identityOfferCanceled(offeredTo);\r\n    closeOffer();\r\n  }\r\n\r\n  function closeOffer() internal {\r\n    offeredTo = address(0);\r\n  }\r\n\r\n  function sendTransaction(address to, bytes memory data, uint256 value)\r\n    external\r\n    isOwner\r\n    override\r\n    returns (bool success)\r\n  {\r\n    (success, ) = to.call{ gas: gasleft() - 5000, value: value}(data);\r\n    require(success, \"OfferableIdentity: Error calling other contract\");\r\n    emit TransactionSent(data, value);\r\n  }\r\n\r\n  function supportsInterface(bytes4 interfaceId)\r\n    public\r\n    virtual\r\n    view\r\n    override\r\n    returns (bool)\r\n  {\r\n    return\r\n      interfaceId == type(IOfferable).interfaceId ||\r\n      interfaceId == type(IOwned).interfaceId ||\r\n      super.supportsInterface(interfaceId);\r\n  }\r\n}\r\n",
  "sourcePath": "D:\\Programmazione\\Tesi\\contract\\contracts\\OfferableIdentity.sol",
  "compiler": {
    "name": "solc",
    "version": "0.8.4+commit.c7e474f2.Emscripten.clang"
  },
  "schemaVersion": "3.3.3",
  "updatedAt": "2021-09-05T15:33:46.588Z",
  "devdoc": {
    "kind": "dev",
    "methods": {
      "supportsInterface(bytes4)": {
        "details": "See {IERC165-supportsInterface}."
      }
    },
    "version": 1
  },
  "userdoc": {
    "kind": "user",
    "methods": {},
    "version": 1
  }
}